:04000000020069325F
:01000B0032C2
:0100130032BA
:01001B0032B2
:0100230032AA
:01002B0032A2
:01003300329A
:01003B003292
:01004300328A
:01004B003282
:01005300327A
:01005B003272
:0300630002012275
:0900C2007550CB75510002006677
:0300660002044D44
:2000CB00B290E56004F56080F785816F856E81C020C0E0C0F0C082C083C007C006C005C00E
:2000EB0004C003C002C001C000C0D0856F81222285816F856E81D0D0D000D001D002D003D3
:20010B00D004D005D006D007D083D082D0F0D0E0D020856F812222C020C0E0C0F0C082C08E
:20012B0083C007C006C005C004C003C002C001C000C0D075D000D0D0C0D0756E511200D4F6
:20014B0075D0008581F0E581940EF581D0E0F551D0E0F55085F08175AF00756E4F1200FB97
:20016B00856D81327582491201CCD0D0D000D001D002D003D004D005D006D007D083D082CF
:20018B00D0F0D0E0D02032758E0075D7FE75D6FFD2AF75AF04756E411200D485816DE550D0
:2001AB00C0E0E551C0E0756E5F1200FB758E14222275985A758E0075D7E875D6FF758E1514
:2001CB0022AF8210990280FB8F992210980280FB85998222AD82AE83AFF08D828E838FF0CC
:2001EB001205F7FC60188C820DBD00010EC007C006C0051201CCD005D006D00780DC2274E6
:20020B00F62570400AAF7074302FF5820201CCAF7074372FF5820201CCE571C4540FF570A5
:20022B0012020AE571540FF57002020A857371120224857271020224E566F8760085678211
:20024B00856883E4F0E569F87600E56AF8E4F2F565756011227401B5650280157402B5655E
:20026B0002801E7403B5650280207404B565358022E5612567F582E5623568F583E0FF8033
:20028B002AE5612569F987078021E561256AF9E3FF8018E561256BF582E562356CF583E454
:2002AB0093FF8007E5612566F987078F82227401B56502800E7402B5650280177403B565B6
:2002CB0026801AE5612567F582E5623568F583E563F022E5612569F9AF63A70722E561253A
:2002EB006AF9AF63EFF322E5612566F9AF63A7072275825B1201CC85817112022475825D9A
:20030B000201CC7F007E00BF0D0122BF0A0122C0061201D6AF82D006BF6100400BBF7A00D1
:20032B0050068F05ED24E0FF8F82C007C0061201CCD006D007EE2421F90EA70780C9AF824C
:20034B00BF3000400DEF24C640088F06EE24D0FE8012BF4100400BEF24B94006EF24C9FEF7
:20036B0080027EFF8E8222AD74AE75AF768D828E838FF01205F7F582227E007F00C007C00E
:20038B0006120372AD82D006D007BD200A0574E4B574EA057580E6C007C006120372AD826F
:2003AB00D006D007BD0D0775770190000022C007C006120372120349AD82D006D0078D0436
:2003CB00BDFF0280228E03EFC454F0CBC4CB6BCB54F0CB6BFD7A00EC2BFEEA3DFF0574E411
:2003EB00B574CB057580C77577008E828F83227F00C007120260858271D0070561E4B561A4
:20040B00020562C00712022490061775F0801201DFD0070FBF100040D8227F00856172859A
:20042B006273C00712023790061975F0801201DF1203FA75820D1201CCD0070FBF08004065
:20044B00DB22E4F578F5791202431201BC90061C75F0801201DF90062175F0801201DF1286
:20046B00030EAD21757422757500757640BD44028065BD4603020506BD4D0302055CBD54F6
:20048B00D57C01740DB522028014120384AA828A0490062475F080C0041201DFD0047B001A
:2004AB00C3EB9C50B1758200C004C0031201CC1201921201BC7582001201CC756150756242
:2004CB00001203FA75820D1201CC7582001201CCD003D0040B80C9740DB52202800B120354
:2004EB00848582618583628006857861857962120425856178856279020461120384858257
:20050B0061858362120384AB82AC83C004C003120384AA82D003D0047E007F00C3EE9BEFE5
:20052B009C40030204618A63756400C007C006C004C003C0021202B9D002D003D004D006B2
:20054B00D0070561E4B5610205620EBE00CE0F80CB7453B522140574E4B574020575120333
:20056B0084AE82AF838E65020461C005120384858261858362D005BD2E030204618561727E
:20058B0085627312023775823A1201CC7582201201CC120260858271120224758220120157
:2005AB00CC12030E7574217575007576401203848582638583647F00C007120372AD82D0E7
:2005CB0007BD0D137401B57702800CC0051202B9120260AF82D0057E00EFB5639AEEB564CB
:0C05EB00960561E4B5610205620205821C
:2006170020003A20000A6D6F6E000D3E00616472202020627420612020622020646C206486
:1E063700682072372072362072352072342072332072322072312072302073770A00FD
:06009800E478FFF6D8FD3C
:200076007900E94400601B7A00900655780175A000E493F2A308B8000205A0D9F4DAF275D5
:02009600A0FFC9
:20009E007800E84400600A790175A000E4F309D8FC7800E84400600C7900900001E4F0A360
:0400BE00D8FCD9FA97
:0D006900758179120613E5826003020066BE
:1C05F70020F71430F6148883A88220F507E6A88375830022E280F7E49322E02213
:0406130075820022CA
:00000001FF
