:04000000020069325F
:01000B0032C2
:0100130032BA
:01001B0032B2
:0100230032AA
:01002B0032A2
:01003300329A
:01003B003292
:01004300328A
:01004B003282
:01005300327A
:01005B003272
:0300630002011186
:0C00C200750900750A00750B000200664D
:030066000201D5BF
:2000CE00AF828F061FEE600F7DFF7E0F1DBDFF011EED4E70F780EB22AF827E00C3EE9F5051
:2000EE0013B290850882C007C0061200CED006D0070E80E822B290E50A04F50AE50A700247
:20010E00B29122C020C0E0C0F0C082C083C007C006C005C004C003C002C001C000C0D07596
:20012E00D000E50B04F50BE50B7003120103D0D0D000D001D002D003D004D005D006D00738
:20014E00D083D082D0F0D0E0D02032758E0075D7E875D6FF758E14D2AF75AF042275985A90
:20016E00758E0075D7E875D6FF758E14438E01D2AF75AF0422750900120159E50960FC22E6
:20018E00E5885430F4FF5288758901758A00758C00438810AE885306207F00BE20F6BF00F8
:2001AE00F322AF828F061FEE6009C007120183D00780F122AF8210990280FB8F99221098D0
:2001CE000280FB8599822275081475820A1200E6B2907582E81200CE80ED12016B3098FD97
:0801EE001201CC1201C280F5E0
:06009800E478FFF6D8FD3C
:200076007900E94400601B7A009001FA780175A000E493F2A308B8000205A0D9F4DAF27535
:02009600A0FFC9
:20009E007800E84400600A790175A000E4F309D8FC7800E84400600C7900900001E4F0A360
:0400BE00D8FCD9FA97
:0D0069007581201201F6E582600302006639
:0401F60075820022EC
:00000001FF
