:0400000002001132B7
:03000B0002012DC2
:03006A0002000E83
:03000E000203F1F9
:20006D00AF828F061FEE6007C2002000F580FB22AF827E00C3EE9F5013B290852282C00731
:20008D00C00612006DD006D0070E80E822E5312423F98732AE3253060F7F00EE2410F5825A
:2000AD00EF3407F583E493F590E53230E402D297E53230E503759040E53230E70375900055
:2000CD00E533F4F5B0AE3553060F7F00BE0F05BF00028005E535F4F536E53454F0F4F5A061
:2000ED0085A0350531E533C313F533E534C313F53474FA2531502875310075334075348042
:20010D0020B703753601E537B5360C853638300108D202C2018002D2018536377536002262
:20012D00C021C0E0C0F0C082C083C007C006C005C004C003C002C001C000C0D075D000C249
:20014D008DC2A9D20012009AD2A9D0D0D000D001D002D003D004D005D006D007D083D082C0
:20016D00D0F0D0E0D02132758A00758C28438E81758900D28CD2A9D2AF2275985A75D7E850
:20018D0075D6FF758E00438E14438E0122AF8210990280FB8F992210980280FB85998222A4
:2001AD007F007E008E057405C39D2423F9EE2FF70EBE060040EE758214C00712006DD0074D
:2001CD000FBF0B0040DC227F00EF2423F876800FBF060040F42230030BE4F529F52AF52BAF
:2001ED00F52CC203852908852A09852B0A852C0B90000AE4F5F01205FD85822985832A85CA
:20020D00F02BF52C7488B53A02801EAE39E4FF3395E0FDFCEE2529F529EF352AF52AED35B6
:20022D002BF52BEC352CF52C22AE39E4FF3395E0FDFCE529C39EF529E52A9FF52AE52B9D64
:20024D00F52BE52C9CF52C22E52C30E719D204C3E49529F53FE4952AF540E4952BF541E43B
:20026D00952CF542800EC20485293F852A40852B41852C427543A075448675450175460058
:20028D00753B80753E00753C0085430885440985450A85460B853F828540838541F0E54206
:2002AD001206BAAC82ECF53D70057405B53C0F753B00E53E7008AF3C7406C39FF53EAF3CF5
:2002CD007405C39F2423F9E53B453DF785430885440985450A85460B853F828540838541BD
:2002ED00F0E54212066B85823F85834085F041F54275080AE4F509F50AF50B854382854461
:20030D00838545F0E5461206BA85824385834485F045F546053C74FA253C400302029630EE
:20032D00040D74FA253E4007E53E2423F8762022D2037484B53802801085383A85292D85CA
:20034D002A2E852B2F852C30227418B53A0280167428B53A0280357448B53A028054748884
:20036D00B53A02806622852908852A09852B0A852C0B852D82852E83852FF0E5301206BA9E
:20038D0085822985832A85F02BF52C22852908852A09852B0A852C0B852D82852E83852F09
:2003AD00F0E5301205FD85822985832A85F02BF52C22E529252DF529E52A352EF52AE52BB3
:2003CD00352FF52BE52C3530F52C22E529252DF529E52A352EF52AE52B352FF52BE52C35EA
:2003ED0030F52C22120187120174C2021201AD1201D4E4F529F52AF52BF52C10020280FB00
:20040D007401B538030204987411B538030204A37412B538030204AB7414B538030204B356
:20042D007418B538030204BB7421B538030204C07422B538030204C87424B538030204D075
:20044D007428B538030204D87441B538030204DD7442B538030204E57444B538030204ED71
:20046D007448B538030204F57481B538030204FA7482B538030205027484B53803020507FE
:20048D007488B5380302050C02050FE4F529F52AF52BF52C806C7539071201E380647539AF
:2004AD00081201E3805C7539091201E3805412033D804F7539041201E3804775390512017E
:2004CD00E3803F7539061201E3803712033D80327539011201E3802A7539021201E3802271
:2004ED007539031201E3801A12033D80157539001201E3800D12033D800812033D800312D5
:08050D00033D1202550204082F
:100710003F065B4F666D7D277F6F777C585E7971F2
:20051500F9E5084509450A450B60777800C308E50B20E73BE50825E0F508E50933F509E5B4
:200535000A33F50AE50B33F50BE5829508E5839509E5F0950AE9950B50D4C3E50B13F50B56
:20055500E50A13F50AE50913F509E50813F508E5829508FCE5839509FDE5F0950AFEE99596
:200575000B4007F98EF08D838C82C3E50B13F50BE50A13F50AE50913F509E50813F508D8E4
:03059500CEE9228A
:20059800FB7A20E4FCFDFEFFE5822582F582E58333F583E5F033F5F0EB33FB4017DAE9809C
:2005B80042E5822582F582E58333F583E5F033F5F0EB33FBEC33FCED33FDEE33FEEF33FFCB
:2005D800EC9508ED9509EE950AEF950B4013EC9508FCED9509FDEE950AFEEF950BFF438295
:0505F80001DABEEB2258
:06004000E478FFF6D8FD94
:20001E007900E94400601B7A00900720780175A000E493F2A308B8000205A0D9F4DAF27561
:02003E00A0FF21
:2005FD00AAF0FBE5828508F0A4FCADF0E5838508F0A42DFDE435F0FEE5828509F0A42DFDBB
:20061D00E5F03EFEE433FFEA8508F0A42EFEE5F03FFFE5838509F0A42EFEE5F03FFFE5821C
:20063D00850AF0A42EFEE5F03FFFEB8508F0A42FFFEA8509F0A42FFFE583850AF0A42FFF0E
:0E065D00E582850BF0A42F8EF08D838C822217
:200046007800E84400600A790175A000E4F309D8FC7800E84400600C7900900001E4F0A3B8
:04006600D8FCD9FAEF
:20066B00F9C2D530E715D2D5E4C39582F582E49583F583E495F0F5F0E499F9E50B30E71583
:20068B00E4C39508F508E49509F509E4950AF50AE4950BF50BE912051530D512E4C395829E
:0F06AB00F582E49583F583E495F0F5F0E4992268
:2006BA00FBC2D530E715D2D5E4C39582F582E49583F583E495F0F5F0E49BFBE50B30E7172C
:2006DA00B2D5E4C39508F508E49509F509E4950AF50AE4950BF50BEB12059830D513FBE421
:1206FA00C39582F582E49583F583E495F0F5F0E49B223A
:0D00110075814612070CE582600302000EA7
:04070C0075820022D0
:00000001FF
